:100000000C9456000C946B000C946B000C946B00D9
:100010000C946B000C946B000C946B000C946B00B4
:100020000C946B000C946B000C946B000C946B00A4
:100030000C946B000C946B000C946B000C946B0094
:100040000C946B000C946B000C946B000C946B0084
:100050000C946B000C946B000C946B000C946B0074
:100060000C946B000C946B000C946B000C946B0064
:100070000C946B000C946B000C946B000C946B0054
:100080000C946B000C946B000C946B000C946B0044
:100090000C946B000C946B000C946B000C946B0034
:1000A0000C946B000C946B000C946B0011241FBE1D
:1000B000CFEFCDBFDFE2DEBF10E2A0E0B0E2E2E2D0
:1000C000F2E002C005900D92A238B107D9F70E9464
:1000D0006D000C940F010C9400008FEF80930106CB
:1000E0008093610640E050E07CC09A01ADECBCEC2E
:1000F0000E940001EC01D695C795D695C79580E082
:100100006BC0E82FF0E021E030E0082E02C0220FA3
:10011000331F0A94E2F7209536EA3A95F1F700C0CA
:10012000A0E6B6E014962C931497BE017727660FCD
:10013000771F660F771F660F771F6F5F7F4DE60F84
:10014000F71F9081392F3170E0E0F6E0348336EA12
:100150003A95F1F700C014962C931497392F32700A
:10016000348336EA3A95F1F700C014962C9314972D
:10017000392F3470348336EA3A95F1F700C014967B
:100180002C931497392F3870348336EA3A95F1F767
:1001900000C014962C931497392F3071348336EAAB
:1001A0003A95F1F700C014962C931497392F3072BA
:1001B000348336EA3A95F1F700C014962C931497DD
:1001C000392F3074348336EA3A95F1F700C014962B
:1001D0002C93907894838F5F883008F492CF4F5F90
:1001E0005F4F8091002090E09C01220F331F220F6F
:1001F000331F820F931F4817590708F476CF72CF29
:10020000A29FB001B39FC001A39F700D811D112457
:10021000911DB29F700D811D1124911D0895F894B8
:02022000FFCF0E
:10022200060000001818000000000018242418001E
:1002320000001824424224180018244281814224DA
:100242001800182442422418000000182424180020
:10025200000000001818000000000000000000006C
:10026200000000000000000000000000000000008C
:10027200000000000000000000000000000000007C
:10028200000000000000000000000000000000006C
:10029200000000000000000000000000000000005C
:0202A20000005A
:00000001FF
